{
	"contracts/b.sol": {
		"Bereitstellen": {
			"abi": [
				{
					"inputs": [],
					"stateMutability": "nonpayable",
					"type": "constructor"
				},
				{
					"anonymous": false,
					"inputs": [
						{
							"indexed": false,
							"internalType": "address",
							"name": "by",
							"type": "address"
						},
						{
							"indexed": false,
							"internalType": "string",
							"name": "color",
							"type": "string"
						}
					],
					"name": "ColorChanged",
					"type": "event"
				},
				{
					"inputs": [],
					"name": "color",
					"outputs": [
						{
							"internalType": "string",
							"name": "",
							"type": "string"
						}
					],
					"stateMutability": "view",
					"type": "function"
				},
				{
					"inputs": [],
					"name": "getDeployer",
					"outputs": [
						{
							"internalType": "address",
							"name": "",
							"type": "address"
						}
					],
					"stateMutability": "view",
					"type": "function"
				},
				{
					"inputs": [
						{
							"internalType": "address",
							"name": "_by",
							"type": "address"
						},
						{
							"internalType": "string",
							"name": "_yourNewColor",
							"type": "string"
						}
					],
					"name": "setColor",
					"outputs": [],
					"stateMutability": "nonpayable",
					"type": "function"
				}
			],
			"devdoc": {
				"details": "Implements voting process along with vote delegation",
				"kind": "dev",
				"methods": {},
				"title": "Ballot",
				"version": 1
			},
			"evm": {
				"assembly": "    /* \"contracts/b.sol\":159:695  contract Bereitstellen {... */\n  mstore(0x40, 0x80)\n    /* \"contracts/b.sol\":252:304  constructor() {... */\n  callvalue\n  dup1\n  iszero\n  tag_1\n  jumpi\n  0x00\n  dup1\n  revert\ntag_1:\n  pop\n    /* \"contracts/b.sol\":287:297  msg.sender */\n  caller\n    /* \"contracts/b.sol\":276:284  deployer */\n  0x00\n  dup1\n    /* \"contracts/b.sol\":276:297  deployer = msg.sender */\n  0x0100\n  exp\n  dup2\n  sload\n  dup2\n  0xffffffffffffffffffffffffffffffffffffffff\n  mul\n  not\n  and\n  swap1\n  dup4\n  0xffffffffffffffffffffffffffffffffffffffff\n  and\n  mul\n  or\n  swap1\n  sstore\n  pop\n    /* \"contracts/b.sol\":159:695  contract Bereitstellen {... */\n  dataSize(sub_0)\n  dup1\n  dataOffset(sub_0)\n  0x00\n  codecopy\n  0x00\n  return\nstop\n\nsub_0: assembly {\n        /* \"contracts/b.sol\":159:695  contract Bereitstellen {... */\n      mstore(0x40, 0x80)\n      callvalue\n      dup1\n      iszero\n      tag_1\n      jumpi\n      0x00\n      dup1\n      revert\n    tag_1:\n      pop\n      jumpi(tag_2, lt(calldatasize, 0x04))\n      shr(0xe0, calldataload(0x00))\n      dup1\n      0x72630531\n      eq\n      tag_3\n      jumpi\n      dup1\n      0xcf08fed5\n      eq\n      tag_4\n      jumpi\n      dup1\n      0xdb0c4bb6\n      eq\n      tag_5\n      jumpi\n    tag_2:\n      0x00\n      dup1\n      revert\n        /* \"contracts/b.sol\":310:393  function getDeployer() public view returns(address){... */\n    tag_3:\n      tag_6\n      tag_7\n      jump\t// in\n    tag_6:\n      mload(0x40)\n      tag_8\n      swap2\n      swap1\n      tag_9\n      jump\t// in\n    tag_8:\n      mload(0x40)\n      dup1\n      swap2\n      sub\n      swap1\n      return\n        /* \"contracts/b.sol\":226:245  string public color */\n    tag_4:\n      tag_10\n      tag_11\n      jump\t// in\n    tag_10:\n      mload(0x40)\n      tag_12\n      swap2\n      swap1\n      tag_13\n      jump\t// in\n    tag_12:\n      mload(0x40)\n      dup1\n      swap2\n      sub\n      swap1\n      return\n        /* \"contracts/b.sol\":454:693  function setColor(address _by, string memory _yourNewColor) public {... */\n    tag_5:\n      tag_14\n      0x04\n      dup1\n      calldatasize\n      sub\n      dup2\n      add\n      swap1\n      tag_15\n      swap2\n      swap1\n      tag_16\n      jump\t// in\n    tag_15:\n      tag_17\n      jump\t// in\n    tag_14:\n      stop\n        /* \"contracts/b.sol\":310:393  function getDeployer() public view returns(address){... */\n    tag_7:\n        /* \"contracts/b.sol\":353:360  address */\n      0x00\n        /* \"contracts/b.sol\":378:386  deployer */\n      dup1\n      0x00\n      swap1\n      sload\n      swap1\n      0x0100\n      exp\n      swap1\n      div\n      0xffffffffffffffffffffffffffffffffffffffff\n      and\n        /* \"contracts/b.sol\":371:386  return deployer */\n      swap1\n      pop\n        /* \"contracts/b.sol\":310:393  function getDeployer() public view returns(address){... */\n      swap1\n      jump\t// out\n        /* \"contracts/b.sol\":226:245  string public color */\n    tag_11:\n      0x02\n      dup1\n      sload\n      tag_19\n      swap1\n      tag_20\n      jump\t// in\n    tag_19:\n      dup1\n      0x1f\n      add\n      0x20\n      dup1\n      swap2\n      div\n      mul\n      0x20\n      add\n      mload(0x40)\n      swap1\n      dup2\n      add\n      0x40\n      mstore\n      dup1\n      swap3\n      swap2\n      swap1\n      dup2\n      dup2\n      mstore\n      0x20\n      add\n      dup3\n      dup1\n      sload\n      tag_21\n      swap1\n      tag_20\n      jump\t// in\n    tag_21:\n      dup1\n      iszero\n      tag_22\n      jumpi\n      dup1\n      0x1f\n      lt\n      tag_23\n      jumpi\n      0x0100\n      dup1\n      dup4\n      sload\n      div\n      mul\n      dup4\n      mstore\n      swap2\n      0x20\n      add\n      swap2\n      jump(tag_22)\n    tag_23:\n      dup3\n      add\n      swap2\n      swap1\n      0x00\n      mstore\n      keccak256(0x00, 0x20)\n      swap1\n    tag_24:\n      dup2\n      sload\n      dup2\n      mstore\n      swap1\n      0x01\n      add\n      swap1\n      0x20\n      add\n      dup1\n      dup4\n      gt\n      tag_24\n      jumpi\n      dup3\n      swap1\n      sub\n      0x1f\n      and\n      dup3\n      add\n      swap2\n    tag_22:\n      pop\n      pop\n      pop\n      pop\n      pop\n      dup2\n      jump\t// out\n        /* \"contracts/b.sol\":454:693  function setColor(address _by, string memory _yourNewColor) public {... */\n    tag_17:\n        /* \"contracts/b.sol\":536:539  _by */\n      dup2\n        /* \"contracts/b.sol\":531:533  by */\n      0x01\n      0x00\n        /* \"contracts/b.sol\":531:539  by = _by */\n      0x0100\n      exp\n      dup2\n      sload\n      dup2\n      0xffffffffffffffffffffffffffffffffffffffff\n      mul\n      not\n      and\n      swap1\n      dup4\n      0xffffffffffffffffffffffffffffffffffffffff\n      and\n      mul\n      or\n      swap1\n      sstore\n      pop\n        /* \"contracts/b.sol\":563:571  deployer */\n      0x00\n      dup1\n      sload\n      swap1\n      0x0100\n      exp\n      swap1\n      div\n      0xffffffffffffffffffffffffffffffffffffffff\n      and\n        /* \"contracts/b.sol\":557:571  by == deployer */\n      0xffffffffffffffffffffffffffffffffffffffff\n      and\n        /* \"contracts/b.sol\":557:559  by */\n      0x01\n      0x00\n      swap1\n      sload\n      swap1\n      0x0100\n      exp\n      swap1\n      div\n      0xffffffffffffffffffffffffffffffffffffffff\n      and\n        /* \"contracts/b.sol\":557:571  by == deployer */\n      0xffffffffffffffffffffffffffffffffffffffff\n      and\n      eq\n        /* \"contracts/b.sol\":549:603  require(by == deployer, \"Can only called by deployer\") */\n      tag_26\n      jumpi\n      mload(0x40)\n      0x08c379a000000000000000000000000000000000000000000000000000000000\n      dup2\n      mstore\n      0x04\n      add\n      tag_27\n      swap1\n      tag_28\n      jump\t// in\n    tag_27:\n      mload(0x40)\n      dup1\n      swap2\n      sub\n      swap1\n      revert\n    tag_26:\n        /* \"contracts/b.sol\":621:634  _yourNewColor */\n      dup1\n        /* \"contracts/b.sol\":613:618  color */\n      0x02\n        /* \"contracts/b.sol\":613:634  color = _yourNewColor */\n      swap1\n      dup1\n      mload\n      swap1\n      0x20\n      add\n      swap1\n      tag_29\n      swap3\n      swap2\n      swap1\n      tag_30\n      jump\t// in\n    tag_29:\n      pop\n        /* \"contracts/b.sol\":649:686  ColorChanged(deployer, _yourNewColor) */\n      0xabf5663af37c05ec71fa04c04d9f65bc6089f26bb0aefc5b109add222b2a66ca\n        /* \"contracts/b.sol\":662:670  deployer */\n      0x00\n      dup1\n      sload\n      swap1\n      0x0100\n      exp\n      swap1\n      div\n      0xffffffffffffffffffffffffffffffffffffffff\n      and\n        /* \"contracts/b.sol\":672:685  _yourNewColor */\n      dup3\n        /* \"contracts/b.sol\":649:686  ColorChanged(deployer, _yourNewColor) */\n      mload(0x40)\n      tag_31\n      swap3\n      swap2\n      swap1\n      tag_32\n      jump\t// in\n    tag_31:\n      mload(0x40)\n      dup1\n      swap2\n      sub\n      swap1\n      log1\n        /* \"contracts/b.sol\":454:693  function setColor(address _by, string memory _yourNewColor) public {... */\n      pop\n      pop\n      jump\t// out\n    tag_30:\n      dup3\n      dup1\n      sload\n      tag_33\n      swap1\n      tag_20\n      jump\t// in\n    tag_33:\n      swap1\n      0x00\n      mstore\n      keccak256(0x00, 0x20)\n      swap1\n      0x1f\n      add\n      0x20\n      swap1\n      div\n      dup2\n      add\n      swap3\n      dup3\n      tag_35\n      jumpi\n      0x00\n      dup6\n      sstore\n      jump(tag_34)\n    tag_35:\n      dup3\n      0x1f\n      lt\n      tag_36\n      jumpi\n      dup1\n      mload\n      not(0xff)\n      and\n      dup4\n      dup1\n      add\n      or\n      dup6\n      sstore\n      jump(tag_34)\n    tag_36:\n      dup3\n      dup1\n      add\n      0x01\n      add\n      dup6\n      sstore\n      dup3\n      iszero\n      tag_34\n      jumpi\n      swap2\n      dup3\n      add\n    tag_37:\n      dup3\n      dup2\n      gt\n      iszero\n      tag_38\n      jumpi\n      dup3\n      mload\n      dup3\n      sstore\n      swap2\n      0x20\n      add\n      swap2\n      swap1\n      0x01\n      add\n      swap1\n      jump(tag_37)\n    tag_38:\n    tag_34:\n      pop\n      swap1\n      pop\n      tag_39\n      swap2\n      swap1\n      tag_40\n      jump\t// in\n    tag_39:\n      pop\n      swap1\n      jump\t// out\n    tag_40:\n    tag_41:\n      dup1\n      dup3\n      gt\n      iszero\n      tag_42\n      jumpi\n      0x00\n      dup2\n      0x00\n      swap1\n      sstore\n      pop\n      0x01\n      add\n      jump(tag_41)\n    tag_42:\n      pop\n      swap1\n      jump\t// out\n        /* \"#utility.yul\":7:351   */\n    tag_44:\n      0x00\n        /* \"#utility.yul\":110:175   */\n      tag_46\n        /* \"#utility.yul\":125:174   */\n      tag_47\n        /* \"#utility.yul\":167:173   */\n      dup5\n        /* \"#utility.yul\":125:174   */\n      tag_48\n      jump\t// in\n    tag_47:\n        /* \"#utility.yul\":110:175   */\n      tag_49\n      jump\t// in\n    tag_46:\n        /* \"#utility.yul\":101:175   */\n      swap1\n      pop\n        /* \"#utility.yul\":198:204   */\n      dup3\n        /* \"#utility.yul\":191:196   */\n      dup2\n        /* \"#utility.yul\":184:205   */\n      mstore\n        /* \"#utility.yul\":236:240   */\n      0x20\n        /* \"#utility.yul\":229:234   */\n      dup2\n        /* \"#utility.yul\":225:241   */\n      add\n        /* \"#utility.yul\":274:277   */\n      dup5\n        /* \"#utility.yul\":265:271   */\n      dup5\n        /* \"#utility.yul\":260:263   */\n      dup5\n        /* \"#utility.yul\":256:272   */\n      add\n        /* \"#utility.yul\":253:278   */\n      gt\n        /* \"#utility.yul\":250:252   */\n      iszero\n      tag_50\n      jumpi\n        /* \"#utility.yul\":291:292   */\n      0x00\n        /* \"#utility.yul\":288:289   */\n      dup1\n        /* \"#utility.yul\":281:293   */\n      revert\n        /* \"#utility.yul\":250:252   */\n    tag_50:\n        /* \"#utility.yul\":304:345   */\n      tag_51\n        /* \"#utility.yul\":338:344   */\n      dup5\n        /* \"#utility.yul\":333:336   */\n      dup3\n        /* \"#utility.yul\":328:331   */\n      dup6\n        /* \"#utility.yul\":304:345   */\n      tag_52\n      jump\t// in\n    tag_51:\n        /* \"#utility.yul\":91:351   */\n      pop\n      swap4\n      swap3\n      pop\n      pop\n      pop\n      jump\t// out\n        /* \"#utility.yul\":357:496   */\n    tag_53:\n      0x00\n        /* \"#utility.yul\":441:447   */\n      dup2\n        /* \"#utility.yul\":428:448   */\n      calldataload\n        /* \"#utility.yul\":419:448   */\n      swap1\n      pop\n        /* \"#utility.yul\":457:490   */\n      tag_55\n        /* \"#utility.yul\":484:489   */\n      dup2\n        /* \"#utility.yul\":457:490   */\n      tag_56\n      jump\t// in\n    tag_55:\n        /* \"#utility.yul\":409:496   */\n      swap3\n      swap2\n      pop\n      pop\n      jump\t// out\n        /* \"#utility.yul\":516:789   */\n    tag_57:\n      0x00\n        /* \"#utility.yul\":621:624   */\n      dup3\n        /* \"#utility.yul\":614:618   */\n      0x1f\n        /* \"#utility.yul\":606:612   */\n      dup4\n        /* \"#utility.yul\":602:619   */\n      add\n        /* \"#utility.yul\":598:625   */\n      slt\n        /* \"#utility.yul\":588:590   */\n      tag_59\n      jumpi\n        /* \"#utility.yul\":639:640   */\n      0x00\n        /* \"#utility.yul\":636:637   */\n      dup1\n        /* \"#utility.yul\":629:641   */\n      revert\n        /* \"#utility.yul\":588:590   */\n    tag_59:\n        /* \"#utility.yul\":679:685   */\n      dup2\n        /* \"#utility.yul\":666:686   */\n      calldataload\n        /* \"#utility.yul\":704:783   */\n      tag_60\n        /* \"#utility.yul\":779:782   */\n      dup5\n        /* \"#utility.yul\":771:777   */\n      dup3\n        /* \"#utility.yul\":764:768   */\n      0x20\n        /* \"#utility.yul\":756:762   */\n      dup7\n        /* \"#utility.yul\":752:769   */\n      add\n        /* \"#utility.yul\":704:783   */\n      tag_44\n      jump\t// in\n    tag_60:\n        /* \"#utility.yul\":695:783   */\n      swap2\n      pop\n        /* \"#utility.yul\":578:789   */\n      pop\n      swap3\n      swap2\n      pop\n      pop\n      jump\t// out\n        /* \"#utility.yul\":795:1315   */\n    tag_16:\n      0x00\n      dup1\n        /* \"#utility.yul\":930:932   */\n      0x40\n        /* \"#utility.yul\":918:927   */\n      dup4\n        /* \"#utility.yul\":909:916   */\n      dup6\n        /* \"#utility.yul\":905:928   */\n      sub\n        /* \"#utility.yul\":901:933   */\n      slt\n        /* \"#utility.yul\":898:900   */\n      iszero\n      tag_62\n      jumpi\n        /* \"#utility.yul\":946:947   */\n      0x00\n        /* \"#utility.yul\":943:944   */\n      dup1\n        /* \"#utility.yul\":936:948   */\n      revert\n        /* \"#utility.yul\":898:900   */\n    tag_62:\n        /* \"#utility.yul\":989:990   */\n      0x00\n        /* \"#utility.yul\":1014:1067   */\n      tag_63\n        /* \"#utility.yul\":1059:1066   */\n      dup6\n        /* \"#utility.yul\":1050:1056   */\n      dup3\n        /* \"#utility.yul\":1039:1048   */\n      dup7\n        /* \"#utility.yul\":1035:1057   */\n      add\n        /* \"#utility.yul\":1014:1067   */\n      tag_53\n      jump\t// in\n    tag_63:\n        /* \"#utility.yul\":1004:1067   */\n      swap3\n      pop\n        /* \"#utility.yul\":960:1077   */\n      pop\n        /* \"#utility.yul\":1144:1146   */\n      0x20\n        /* \"#utility.yul\":1133:1142   */\n      dup4\n        /* \"#utility.yul\":1129:1147   */\n      add\n        /* \"#utility.yul\":1116:1148   */\n      calldataload\n        /* \"#utility.yul\":1175:1193   */\n      0xffffffffffffffff\n        /* \"#utility.yul\":1167:1173   */\n      dup2\n        /* \"#utility.yul\":1164:1194   */\n      gt\n        /* \"#utility.yul\":1161:1163   */\n      iszero\n      tag_64\n      jumpi\n        /* \"#utility.yul\":1207:1208   */\n      0x00\n        /* \"#utility.yul\":1204:1205   */\n      dup1\n        /* \"#utility.yul\":1197:1209   */\n      revert\n        /* \"#utility.yul\":1161:1163   */\n    tag_64:\n        /* \"#utility.yul\":1235:1298   */\n      tag_65\n        /* \"#utility.yul\":1290:1297   */\n      dup6\n        /* \"#utility.yul\":1281:1287   */\n      dup3\n        /* \"#utility.yul\":1270:1279   */\n      dup7\n        /* \"#utility.yul\":1266:1288   */\n      add\n        /* \"#utility.yul\":1235:1298   */\n      tag_57\n      jump\t// in\n    tag_65:\n        /* \"#utility.yul\":1225:1298   */\n      swap2\n      pop\n        /* \"#utility.yul\":1087:1308   */\n      pop\n        /* \"#utility.yul\":888:1315   */\n      swap3\n      pop\n      swap3\n      swap1\n      pop\n      jump\t// out\n        /* \"#utility.yul\":1321:1439   */\n    tag_66:\n        /* \"#utility.yul\":1408:1432   */\n      tag_68\n        /* \"#utility.yul\":1426:1431   */\n      dup2\n        /* \"#utility.yul\":1408:1432   */\n      tag_69\n      jump\t// in\n    tag_68:\n        /* \"#utility.yul\":1403:1406   */\n      dup3\n        /* \"#utility.yul\":1396:1433   */\n      mstore\n        /* \"#utility.yul\":1386:1439   */\n      pop\n      pop\n      jump\t// out\n        /* \"#utility.yul\":1445:1809   */\n    tag_70:\n      0x00\n        /* \"#utility.yul\":1561:1600   */\n      tag_72\n        /* \"#utility.yul\":1594:1599   */\n      dup3\n        /* \"#utility.yul\":1561:1600   */\n      tag_73\n      jump\t// in\n    tag_72:\n        /* \"#utility.yul\":1616:1687   */\n      tag_74\n        /* \"#utility.yul\":1680:1686   */\n      dup2\n        /* \"#utility.yul\":1675:1678   */\n      dup6\n        /* \"#utility.yul\":1616:1687   */\n      tag_75\n      jump\t// in\n    tag_74:\n        /* \"#utility.yul\":1609:1687   */\n      swap4\n      pop\n        /* \"#utility.yul\":1696:1748   */\n      tag_76\n        /* \"#utility.yul\":1741:1747   */\n      dup2\n        /* \"#utility.yul\":1736:1739   */\n      dup6\n        /* \"#utility.yul\":1729:1733   */\n      0x20\n        /* \"#utility.yul\":1722:1727   */\n      dup7\n        /* \"#utility.yul\":1718:1734   */\n      add\n        /* \"#utility.yul\":1696:1748   */\n      tag_77\n      jump\t// in\n    tag_76:\n        /* \"#utility.yul\":1773:1802   */\n      tag_78\n        /* \"#utility.yul\":1795:1801   */\n      dup2\n        /* \"#utility.yul\":1773:1802   */\n      tag_79\n      jump\t// in\n    tag_78:\n        /* \"#utility.yul\":1768:1771   */\n      dup5\n        /* \"#utility.yul\":1764:1803   */\n      add\n        /* \"#utility.yul\":1757:1803   */\n      swap2\n      pop\n        /* \"#utility.yul\":1537:1809   */\n      pop\n      swap3\n      swap2\n      pop\n      pop\n      jump\t// out\n        /* \"#utility.yul\":1815:2140   */\n    tag_80:\n      0x00\n        /* \"#utility.yul\":1978:2045   */\n      tag_82\n        /* \"#utility.yul\":2042:2044   */\n      0x1b\n        /* \"#utility.yul\":2037:2040   */\n      dup4\n        /* \"#utility.yul\":1978:2045   */\n      tag_75\n      jump\t// in\n    tag_82:\n        /* \"#utility.yul\":1971:2045   */\n      swap2\n      pop\n        /* \"#utility.yul\":2075:2104   */\n      0x43616e206f6e6c792063616c6c6564206279206465706c6f7965720000000000\n        /* \"#utility.yul\":2071:2072   */\n      0x00\n        /* \"#utility.yul\":2066:2069   */\n      dup4\n        /* \"#utility.yul\":2062:2073   */\n      add\n        /* \"#utility.yul\":2055:2105   */\n      mstore\n        /* \"#utility.yul\":2131:2133   */\n      0x20\n        /* \"#utility.yul\":2126:2129   */\n      dup3\n        /* \"#utility.yul\":2122:2134   */\n      add\n        /* \"#utility.yul\":2115:2134   */\n      swap1\n      pop\n        /* \"#utility.yul\":1961:2140   */\n      swap2\n      swap1\n      pop\n      jump\t// out\n        /* \"#utility.yul\":2146:2368   */\n    tag_9:\n      0x00\n        /* \"#utility.yul\":2277:2279   */\n      0x20\n        /* \"#utility.yul\":2266:2275   */\n      dup3\n        /* \"#utility.yul\":2262:2280   */\n      add\n        /* \"#utility.yul\":2254:2280   */\n      swap1\n      pop\n        /* \"#utility.yul\":2290:2361   */\n      tag_84\n        /* \"#utility.yul\":2358:2359   */\n      0x00\n        /* \"#utility.yul\":2347:2356   */\n      dup4\n        /* \"#utility.yul\":2343:2360   */\n      add\n        /* \"#utility.yul\":2334:2340   */\n      dup5\n        /* \"#utility.yul\":2290:2361   */\n      tag_66\n      jump\t// in\n    tag_84:\n        /* \"#utility.yul\":2244:2368   */\n      swap3\n      swap2\n      pop\n      pop\n      jump\t// out\n        /* \"#utility.yul\":2374:2797   */\n    tag_32:\n      0x00\n        /* \"#utility.yul\":2553:2555   */\n      0x40\n        /* \"#utility.yul\":2542:2551   */\n      dup3\n        /* \"#utility.yul\":2538:2556   */\n      add\n        /* \"#utility.yul\":2530:2556   */\n      swap1\n      pop\n        /* \"#utility.yul\":2566:2637   */\n      tag_86\n        /* \"#utility.yul\":2634:2635   */\n      0x00\n        /* \"#utility.yul\":2623:2632   */\n      dup4\n        /* \"#utility.yul\":2619:2636   */\n      add\n        /* \"#utility.yul\":2610:2616   */\n      dup6\n        /* \"#utility.yul\":2566:2637   */\n      tag_66\n      jump\t// in\n    tag_86:\n        /* \"#utility.yul\":2684:2693   */\n      dup2\n        /* \"#utility.yul\":2678:2682   */\n      dup2\n        /* \"#utility.yul\":2674:2694   */\n      sub\n        /* \"#utility.yul\":2669:2671   */\n      0x20\n        /* \"#utility.yul\":2658:2667   */\n      dup4\n        /* \"#utility.yul\":2654:2672   */\n      add\n        /* \"#utility.yul\":2647:2695   */\n      mstore\n        /* \"#utility.yul\":2712:2790   */\n      tag_87\n        /* \"#utility.yul\":2785:2789   */\n      dup2\n        /* \"#utility.yul\":2776:2782   */\n      dup5\n        /* \"#utility.yul\":2712:2790   */\n      tag_70\n      jump\t// in\n    tag_87:\n        /* \"#utility.yul\":2704:2790   */\n      swap1\n      pop\n        /* \"#utility.yul\":2520:2797   */\n      swap4\n      swap3\n      pop\n      pop\n      pop\n      jump\t// out\n        /* \"#utility.yul\":2803:3116   */\n    tag_13:\n      0x00\n        /* \"#utility.yul\":2954:2956   */\n      0x20\n        /* \"#utility.yul\":2943:2952   */\n      dup3\n        /* \"#utility.yul\":2939:2957   */\n      add\n        /* \"#utility.yul\":2931:2957   */\n      swap1\n      pop\n        /* \"#utility.yul\":3003:3012   */\n      dup2\n        /* \"#utility.yul\":2997:3001   */\n      dup2\n        /* \"#utility.yul\":2993:3013   */\n      sub\n        /* \"#utility.yul\":2989:2990   */\n      0x00\n        /* \"#utility.yul\":2978:2987   */\n      dup4\n        /* \"#utility.yul\":2974:2991   */\n      add\n        /* \"#utility.yul\":2967:3014   */\n      mstore\n        /* \"#utility.yul\":3031:3109   */\n      tag_89\n        /* \"#utility.yul\":3104:3108   */\n      dup2\n        /* \"#utility.yul\":3095:3101   */\n      dup5\n        /* \"#utility.yul\":3031:3109   */\n      tag_70\n      jump\t// in\n    tag_89:\n        /* \"#utility.yul\":3023:3109   */\n      swap1\n      pop\n        /* \"#utility.yul\":2921:3116   */\n      swap3\n      swap2\n      pop\n      pop\n      jump\t// out\n        /* \"#utility.yul\":3122:3541   */\n    tag_28:\n      0x00\n        /* \"#utility.yul\":3326:3328   */\n      0x20\n        /* \"#utility.yul\":3315:3324   */\n      dup3\n        /* \"#utility.yul\":3311:3329   */\n      add\n        /* \"#utility.yul\":3303:3329   */\n      swap1\n      pop\n        /* \"#utility.yul\":3375:3384   */\n      dup2\n        /* \"#utility.yul\":3369:3373   */\n      dup2\n        /* \"#utility.yul\":3365:3385   */\n      sub\n        /* \"#utility.yul\":3361:3362   */\n      0x00\n        /* \"#utility.yul\":3350:3359   */\n      dup4\n        /* \"#utility.yul\":3346:3363   */\n      add\n        /* \"#utility.yul\":3339:3386   */\n      mstore\n        /* \"#utility.yul\":3403:3534   */\n      tag_91\n        /* \"#utility.yul\":3529:3533   */\n      dup2\n        /* \"#utility.yul\":3403:3534   */\n      tag_80\n      jump\t// in\n    tag_91:\n        /* \"#utility.yul\":3395:3534   */\n      swap1\n      pop\n        /* \"#utility.yul\":3293:3541   */\n      swap2\n      swap1\n      pop\n      jump\t// out\n        /* \"#utility.yul\":3547:3830   */\n    tag_49:\n      0x00\n        /* \"#utility.yul\":3613:3615   */\n      0x40\n        /* \"#utility.yul\":3607:3616   */\n      mload\n        /* \"#utility.yul\":3597:3616   */\n      swap1\n      pop\n        /* \"#utility.yul\":3655:3659   */\n      dup2\n        /* \"#utility.yul\":3647:3653   */\n      dup2\n        /* \"#utility.yul\":3643:3660   */\n      add\n        /* \"#utility.yul\":3762:3768   */\n      dup2\n        /* \"#utility.yul\":3750:3760   */\n      dup2\n        /* \"#utility.yul\":3747:3769   */\n      lt\n        /* \"#utility.yul\":3726:3744   */\n      0xffffffffffffffff\n        /* \"#utility.yul\":3714:3724   */\n      dup3\n        /* \"#utility.yul\":3711:3745   */\n      gt\n        /* \"#utility.yul\":3708:3770   */\n      or\n        /* \"#utility.yul\":3705:3707   */\n      iszero\n      tag_93\n      jumpi\n        /* \"#utility.yul\":3773:3791   */\n      tag_94\n      tag_95\n      jump\t// in\n    tag_94:\n        /* \"#utility.yul\":3705:3707   */\n    tag_93:\n        /* \"#utility.yul\":3813:3823   */\n      dup1\n        /* \"#utility.yul\":3809:3811   */\n      0x40\n        /* \"#utility.yul\":3802:3824   */\n      mstore\n        /* \"#utility.yul\":3587:3830   */\n      pop\n      swap2\n      swap1\n      pop\n      jump\t// out\n        /* \"#utility.yul\":3836:4168   */\n    tag_48:\n      0x00\n        /* \"#utility.yul\":3988:4006   */\n      0xffffffffffffffff\n        /* \"#utility.yul\":3980:3986   */\n      dup3\n        /* \"#utility.yul\":3977:4007   */\n      gt\n        /* \"#utility.yul\":3974:3976   */\n      iszero\n      tag_97\n      jumpi\n        /* \"#utility.yul\":4010:4028   */\n      tag_98\n      tag_95\n      jump\t// in\n    tag_98:\n        /* \"#utility.yul\":3974:3976   */\n    tag_97:\n        /* \"#utility.yul\":4095:4099   */\n      0x1f\n        /* \"#utility.yul\":4091:4100   */\n      not\n        /* \"#utility.yul\":4084:4088   */\n      0x1f\n        /* \"#utility.yul\":4076:4082   */\n      dup4\n        /* \"#utility.yul\":4072:4089   */\n      add\n        /* \"#utility.yul\":4068:4101   */\n      and\n        /* \"#utility.yul\":4060:4101   */\n      swap1\n      pop\n        /* \"#utility.yul\":4156:4160   */\n      0x20\n        /* \"#utility.yul\":4150:4154   */\n      dup2\n        /* \"#utility.yul\":4146:4161   */\n      add\n        /* \"#utility.yul\":4138:4161   */\n      swap1\n      pop\n        /* \"#utility.yul\":3903:4168   */\n      swap2\n      swap1\n      pop\n      jump\t// out\n        /* \"#utility.yul\":4174:4273   */\n    tag_73:\n      0x00\n        /* \"#utility.yul\":4260:4265   */\n      dup2\n        /* \"#utility.yul\":4254:4266   */\n      mload\n        /* \"#utility.yul\":4244:4266   */\n      swap1\n      pop\n        /* \"#utility.yul\":4233:4273   */\n      swap2\n      swap1\n      pop\n      jump\t// out\n        /* \"#utility.yul\":4279:4448   */\n    tag_75:\n      0x00\n        /* \"#utility.yul\":4397:4403   */\n      dup3\n        /* \"#utility.yul\":4392:4395   */\n      dup3\n        /* \"#utility.yul\":4385:4404   */\n      mstore\n        /* \"#utility.yul\":4437:4441   */\n      0x20\n        /* \"#utility.yul\":4432:4435   */\n      dup3\n        /* \"#utility.yul\":4428:4442   */\n      add\n        /* \"#utility.yul\":4413:4442   */\n      swap1\n      pop\n        /* \"#utility.yul\":4375:4448   */\n      swap3\n      swap2\n      pop\n      pop\n      jump\t// out\n        /* \"#utility.yul\":4454:4550   */\n    tag_69:\n      0x00\n        /* \"#utility.yul\":4520:4544   */\n      tag_102\n        /* \"#utility.yul\":4538:4543   */\n      dup3\n        /* \"#utility.yul\":4520:4544   */\n      tag_103\n      jump\t// in\n    tag_102:\n        /* \"#utility.yul\":4509:4544   */\n      swap1\n      pop\n        /* \"#utility.yul\":4499:4550   */\n      swap2\n      swap1\n      pop\n      jump\t// out\n        /* \"#utility.yul\":4556:4682   */\n    tag_103:\n      0x00\n        /* \"#utility.yul\":4633:4675   */\n      0xffffffffffffffffffffffffffffffffffffffff\n        /* \"#utility.yul\":4626:4631   */\n      dup3\n        /* \"#utility.yul\":4622:4676   */\n      and\n        /* \"#utility.yul\":4611:4676   */\n      swap1\n      pop\n        /* \"#utility.yul\":4601:4682   */\n      swap2\n      swap1\n      pop\n      jump\t// out\n        /* \"#utility.yul\":4688:4842   */\n    tag_52:\n        /* \"#utility.yul\":4772:4778   */\n      dup3\n        /* \"#utility.yul\":4767:4770   */\n      dup2\n        /* \"#utility.yul\":4762:4765   */\n      dup4\n        /* \"#utility.yul\":4749:4779   */\n      calldatacopy\n        /* \"#utility.yul\":4834:4835   */\n      0x00\n        /* \"#utility.yul\":4825:4831   */\n      dup4\n        /* \"#utility.yul\":4820:4823   */\n      dup4\n        /* \"#utility.yul\":4816:4832   */\n      add\n        /* \"#utility.yul\":4809:4836   */\n      mstore\n        /* \"#utility.yul\":4739:4842   */\n      pop\n      pop\n      pop\n      jump\t// out\n        /* \"#utility.yul\":4848:5155   */\n    tag_77:\n        /* \"#utility.yul\":4916:4917   */\n      0x00\n        /* \"#utility.yul\":4926:5039   */\n    tag_107:\n        /* \"#utility.yul\":4940:4946   */\n      dup4\n        /* \"#utility.yul\":4937:4938   */\n      dup2\n        /* \"#utility.yul\":4934:4947   */\n      lt\n        /* \"#utility.yul\":4926:5039   */\n      iszero\n      tag_109\n      jumpi\n        /* \"#utility.yul\":5025:5026   */\n      dup1\n        /* \"#utility.yul\":5020:5023   */\n      dup3\n        /* \"#utility.yul\":5016:5027   */\n      add\n        /* \"#utility.yul\":5010:5028   */\n      mload\n        /* \"#utility.yul\":5006:5007   */\n      dup2\n        /* \"#utility.yul\":5001:5004   */\n      dup5\n        /* \"#utility.yul\":4997:5008   */\n      add\n        /* \"#utility.yul\":4990:5029   */\n      mstore\n        /* \"#utility.yul\":4962:4964   */\n      0x20\n        /* \"#utility.yul\":4959:4960   */\n      dup2\n        /* \"#utility.yul\":4955:4965   */\n      add\n        /* \"#utility.yul\":4950:4965   */\n      swap1\n      pop\n        /* \"#utility.yul\":4926:5039   */\n      jump(tag_107)\n    tag_109:\n        /* \"#utility.yul\":5057:5063   */\n      dup4\n        /* \"#utility.yul\":5054:5055   */\n      dup2\n        /* \"#utility.yul\":5051:5064   */\n      gt\n        /* \"#utility.yul\":5048:5050   */\n      iszero\n      tag_110\n      jumpi\n        /* \"#utility.yul\":5137:5138   */\n      0x00\n        /* \"#utility.yul\":5128:5134   */\n      dup5\n        /* \"#utility.yul\":5123:5126   */\n      dup5\n        /* \"#utility.yul\":5119:5135   */\n      add\n        /* \"#utility.yul\":5112:5139   */\n      mstore\n        /* \"#utility.yul\":5048:5050   */\n    tag_110:\n        /* \"#utility.yul\":4897:5155   */\n      pop\n      pop\n      pop\n      pop\n      jump\t// out\n        /* \"#utility.yul\":5161:5481   */\n    tag_20:\n      0x00\n        /* \"#utility.yul\":5242:5243   */\n      0x02\n        /* \"#utility.yul\":5236:5240   */\n      dup3\n        /* \"#utility.yul\":5232:5244   */\n      div\n        /* \"#utility.yul\":5222:5244   */\n      swap1\n      pop\n        /* \"#utility.yul\":5289:5290   */\n      0x01\n        /* \"#utility.yul\":5283:5287   */\n      dup3\n        /* \"#utility.yul\":5279:5291   */\n      and\n        /* \"#utility.yul\":5310:5328   */\n      dup1\n        /* \"#utility.yul\":5300:5302   */\n      tag_112\n      jumpi\n        /* \"#utility.yul\":5366:5370   */\n      0x7f\n        /* \"#utility.yul\":5358:5364   */\n      dup3\n        /* \"#utility.yul\":5354:5371   */\n      and\n        /* \"#utility.yul\":5344:5371   */\n      swap2\n      pop\n        /* \"#utility.yul\":5300:5302   */\n    tag_112:\n        /* \"#utility.yul\":5428:5430   */\n      0x20\n        /* \"#utility.yul\":5420:5426   */\n      dup3\n        /* \"#utility.yul\":5417:5431   */\n      lt\n        /* \"#utility.yul\":5397:5415   */\n      dup2\n        /* \"#utility.yul\":5394:5432   */\n      eq\n        /* \"#utility.yul\":5391:5393   */\n      iszero\n      tag_113\n      jumpi\n        /* \"#utility.yul\":5447:5465   */\n      tag_114\n      tag_115\n      jump\t// in\n    tag_114:\n        /* \"#utility.yul\":5391:5393   */\n    tag_113:\n        /* \"#utility.yul\":5212:5481   */\n      pop\n      swap2\n      swap1\n      pop\n      jump\t// out\n        /* \"#utility.yul\":5487:5667   */\n    tag_115:\n        /* \"#utility.yul\":5535:5612   */\n      0x4e487b7100000000000000000000000000000000000000000000000000000000\n        /* \"#utility.yul\":5532:5533   */\n      0x00\n        /* \"#utility.yul\":5525:5613   */\n      mstore\n        /* \"#utility.yul\":5632:5636   */\n      0x22\n        /* \"#utility.yul\":5629:5630   */\n      0x04\n        /* \"#utility.yul\":5622:5637   */\n      mstore\n        /* \"#utility.yul\":5656:5660   */\n      0x24\n        /* \"#utility.yul\":5653:5654   */\n      0x00\n        /* \"#utility.yul\":5646:5661   */\n      revert\n        /* \"#utility.yul\":5673:5853   */\n    tag_95:\n        /* \"#utility.yul\":5721:5798   */\n      0x4e487b7100000000000000000000000000000000000000000000000000000000\n        /* \"#utility.yul\":5718:5719   */\n      0x00\n        /* \"#utility.yul\":5711:5799   */\n      mstore\n        /* \"#utility.yul\":5818:5822   */\n      0x41\n        /* \"#utility.yul\":5815:5816   */\n      0x04\n        /* \"#utility.yul\":5808:5823   */\n      mstore\n        /* \"#utility.yul\":5842:5846   */\n      0x24\n        /* \"#utility.yul\":5839:5840   */\n      0x00\n        /* \"#utility.yul\":5832:5847   */\n      revert\n        /* \"#utility.yul\":5859:5961   */\n    tag_79:\n      0x00\n        /* \"#utility.yul\":5951:5953   */\n      0x1f\n        /* \"#utility.yul\":5947:5954   */\n      not\n        /* \"#utility.yul\":5942:5944   */\n      0x1f\n        /* \"#utility.yul\":5935:5940   */\n      dup4\n        /* \"#utility.yul\":5931:5945   */\n      add\n        /* \"#utility.yul\":5927:5955   */\n      and\n        /* \"#utility.yul\":5917:5955   */\n      swap1\n      pop\n        /* \"#utility.yul\":5907:5961   */\n      swap2\n      swap1\n      pop\n      jump\t// out\n        /* \"#utility.yul\":5967:6089   */\n    tag_56:\n        /* \"#utility.yul\":6040:6064   */\n      tag_120\n        /* \"#utility.yul\":6058:6063   */\n      dup2\n        /* \"#utility.yul\":6040:6064   */\n      tag_69\n      jump\t// in\n    tag_120:\n        /* \"#utility.yul\":6033:6038   */\n      dup2\n        /* \"#utility.yul\":6030:6065   */\n      eq\n        /* \"#utility.yul\":6020:6022   */\n      tag_121\n      jumpi\n        /* \"#utility.yul\":6079:6080   */\n      0x00\n        /* \"#utility.yul\":6076:6077   */\n      dup1\n        /* \"#utility.yul\":6069:6081   */\n      revert\n        /* \"#utility.yul\":6020:6022   */\n    tag_121:\n        /* \"#utility.yul\":6010:6089   */\n      pop\n      jump\t// out\n\n    auxdata: 0xa2646970667358221220a356daac19579459e92ee1548c4f1754e6a0fbde5fc35a6566f71fe981bb970564736f6c63430008000033\n}\n",
				"bytecode": {
					"linkReferences": {},
					"object": "608060405234801561001057600080fd5b50336000806101000a81548173ffffffffffffffffffffffffffffffffffffffff021916908373ffffffffffffffffffffffffffffffffffffffff160217905550610722806100606000396000f3fe608060405234801561001057600080fd5b50600436106100415760003560e01c80637263053114610046578063cf08fed514610064578063db0c4bb614610082575b600080fd5b61004e61009e565b60405161005b91906104b6565b60405180910390f35b61006c6100c7565b6040516100799190610501565b60405180910390f35b61009c600480360381019061009791906103da565b610155565b005b60008060009054906101000a900473ffffffffffffffffffffffffffffffffffffffff16905090565b600280546100d490610634565b80601f016020809104026020016040519081016040528092919081815260200182805461010090610634565b801561014d5780601f106101225761010080835404028352916020019161014d565b820191906000526020600020905b81548152906001019060200180831161013057829003601f168201915b505050505081565b81600160006101000a81548173ffffffffffffffffffffffffffffffffffffffff021916908373ffffffffffffffffffffffffffffffffffffffff16021790555060008054906101000a900473ffffffffffffffffffffffffffffffffffffffff1673ffffffffffffffffffffffffffffffffffffffff16600160009054906101000a900473ffffffffffffffffffffffffffffffffffffffff1673ffffffffffffffffffffffffffffffffffffffff1614610246576040517f08c379a000000000000000000000000000000000000000000000000000000000815260040161023d90610523565b60405180910390fd5b806002908051906020019061025c9291906102ba565b507fabf5663af37c05ec71fa04c04d9f65bc6089f26bb0aefc5b109add222b2a66ca60008054906101000a900473ffffffffffffffffffffffffffffffffffffffff16826040516102ae9291906104d1565b60405180910390a15050565b8280546102c690610634565b90600052602060002090601f0160209004810192826102e8576000855561032f565b82601f1061030157805160ff191683800117855561032f565b8280016001018555821561032f579182015b8281111561032e578251825591602001919060010190610313565b5b50905061033c9190610340565b5090565b5b80821115610359576000816000905550600101610341565b5090565b600061037061036b84610574565b610543565b90508281526020810184848401111561038857600080fd5b6103938482856105f2565b509392505050565b6000813590506103aa816106d5565b92915050565b600082601f8301126103c157600080fd5b81356103d184826020860161035d565b91505092915050565b600080604083850312156103ed57600080fd5b60006103fb8582860161039b565b925050602083013567ffffffffffffffff81111561041857600080fd5b610424858286016103b0565b9150509250929050565b610437816105c0565b82525050565b6000610448826105a4565b61045281856105af565b9350610462818560208601610601565b61046b816106c4565b840191505092915050565b6000610483601b836105af565b91507f43616e206f6e6c792063616c6c6564206279206465706c6f79657200000000006000830152602082019050919050565b60006020820190506104cb600083018461042e565b92915050565b60006040820190506104e6600083018561042e565b81810360208301526104f8818461043d565b90509392505050565b6000602082019050818103600083015261051b818461043d565b905092915050565b6000602082019050818103600083015261053c81610476565b9050919050565b6000604051905081810181811067ffffffffffffffff8211171561056a57610569610695565b5b8060405250919050565b600067ffffffffffffffff82111561058f5761058e610695565b5b601f19601f8301169050602081019050919050565b600081519050919050565b600082825260208201905092915050565b60006105cb826105d2565b9050919050565b600073ffffffffffffffffffffffffffffffffffffffff82169050919050565b82818337600083830152505050565b60005b8381101561061f578082015181840152602081019050610604565b8381111561062e576000848401525b50505050565b6000600282049050600182168061064c57607f821691505b602082108114156106605761065f610666565b5b50919050565b7f4e487b7100000000000000000000000000000000000000000000000000000000600052602260045260246000fd5b7f4e487b7100000000000000000000000000000000000000000000000000000000600052604160045260246000fd5b6000601f19601f8301169050919050565b6106de816105c0565b81146106e957600080fd5b5056fea2646970667358221220a356daac19579459e92ee1548c4f1754e6a0fbde5fc35a6566f71fe981bb970564736f6c63430008000033",
					"opcodes": "PUSH1 0x80 PUSH1 0x40 MSTORE CALLVALUE DUP1 ISZERO PUSH2 0x10 JUMPI PUSH1 0x0 DUP1 REVERT JUMPDEST POP CALLER PUSH1 0x0 DUP1 PUSH2 0x100 EXP DUP2 SLOAD DUP2 PUSH20 0xFFFFFFFFFFFFFFFFFFFFFFFFFFFFFFFFFFFFFFFF MUL NOT AND SWAP1 DUP4 PUSH20 0xFFFFFFFFFFFFFFFFFFFFFFFFFFFFFFFFFFFFFFFF AND MUL OR SWAP1 SSTORE POP PUSH2 0x722 DUP1 PUSH2 0x60 PUSH1 0x0 CODECOPY PUSH1 0x0 RETURN INVALID PUSH1 0x80 PUSH1 0x40 MSTORE CALLVALUE DUP1 ISZERO PUSH2 0x10 JUMPI PUSH1 0x0 DUP1 REVERT JUMPDEST POP PUSH1 0x4 CALLDATASIZE LT PUSH2 0x41 JUMPI PUSH1 0x0 CALLDATALOAD PUSH1 0xE0 SHR DUP1 PUSH4 0x72630531 EQ PUSH2 0x46 JUMPI DUP1 PUSH4 0xCF08FED5 EQ PUSH2 0x64 JUMPI DUP1 PUSH4 0xDB0C4BB6 EQ PUSH2 0x82 JUMPI JUMPDEST PUSH1 0x0 DUP1 REVERT JUMPDEST PUSH2 0x4E PUSH2 0x9E JUMP JUMPDEST PUSH1 0x40 MLOAD PUSH2 0x5B SWAP2 SWAP1 PUSH2 0x4B6 JUMP JUMPDEST PUSH1 0x40 MLOAD DUP1 SWAP2 SUB SWAP1 RETURN JUMPDEST PUSH2 0x6C PUSH2 0xC7 JUMP JUMPDEST PUSH1 0x40 MLOAD PUSH2 0x79 SWAP2 SWAP1 PUSH2 0x501 JUMP JUMPDEST PUSH1 0x40 MLOAD DUP1 SWAP2 SUB SWAP1 RETURN JUMPDEST PUSH2 0x9C PUSH1 0x4 DUP1 CALLDATASIZE SUB DUP2 ADD SWAP1 PUSH2 0x97 SWAP2 SWAP1 PUSH2 0x3DA JUMP JUMPDEST PUSH2 0x155 JUMP JUMPDEST STOP JUMPDEST PUSH1 0x0 DUP1 PUSH1 0x0 SWAP1 SLOAD SWAP1 PUSH2 0x100 EXP SWAP1 DIV PUSH20 0xFFFFFFFFFFFFFFFFFFFFFFFFFFFFFFFFFFFFFFFF AND SWAP1 POP SWAP1 JUMP JUMPDEST PUSH1 0x2 DUP1 SLOAD PUSH2 0xD4 SWAP1 PUSH2 0x634 JUMP JUMPDEST DUP1 PUSH1 0x1F ADD PUSH1 0x20 DUP1 SWAP2 DIV MUL PUSH1 0x20 ADD PUSH1 0x40 MLOAD SWAP1 DUP2 ADD PUSH1 0x40 MSTORE DUP1 SWAP3 SWAP2 SWAP1 DUP2 DUP2 MSTORE PUSH1 0x20 ADD DUP3 DUP1 SLOAD PUSH2 0x100 SWAP1 PUSH2 0x634 JUMP JUMPDEST DUP1 ISZERO PUSH2 0x14D JUMPI DUP1 PUSH1 0x1F LT PUSH2 0x122 JUMPI PUSH2 0x100 DUP1 DUP4 SLOAD DIV MUL DUP4 MSTORE SWAP2 PUSH1 0x20 ADD SWAP2 PUSH2 0x14D JUMP JUMPDEST DUP3 ADD SWAP2 SWAP1 PUSH1 0x0 MSTORE PUSH1 0x20 PUSH1 0x0 KECCAK256 SWAP1 JUMPDEST DUP2 SLOAD DUP2 MSTORE SWAP1 PUSH1 0x1 ADD SWAP1 PUSH1 0x20 ADD DUP1 DUP4 GT PUSH2 0x130 JUMPI DUP3 SWAP1 SUB PUSH1 0x1F AND DUP3 ADD SWAP2 JUMPDEST POP POP POP POP POP DUP2 JUMP JUMPDEST DUP2 PUSH1 0x1 PUSH1 0x0 PUSH2 0x100 EXP DUP2 SLOAD DUP2 PUSH20 0xFFFFFFFFFFFFFFFFFFFFFFFFFFFFFFFFFFFFFFFF MUL NOT AND SWAP1 DUP4 PUSH20 0xFFFFFFFFFFFFFFFFFFFFFFFFFFFFFFFFFFFFFFFF AND MUL OR SWAP1 SSTORE POP PUSH1 0x0 DUP1 SLOAD SWAP1 PUSH2 0x100 EXP SWAP1 DIV PUSH20 0xFFFFFFFFFFFFFFFFFFFFFFFFFFFFFFFFFFFFFFFF AND PUSH20 0xFFFFFFFFFFFFFFFFFFFFFFFFFFFFFFFFFFFFFFFF AND PUSH1 0x1 PUSH1 0x0 SWAP1 SLOAD SWAP1 PUSH2 0x100 EXP SWAP1 DIV PUSH20 0xFFFFFFFFFFFFFFFFFFFFFFFFFFFFFFFFFFFFFFFF AND PUSH20 0xFFFFFFFFFFFFFFFFFFFFFFFFFFFFFFFFFFFFFFFF AND EQ PUSH2 0x246 JUMPI PUSH1 0x40 MLOAD PUSH32 0x8C379A000000000000000000000000000000000000000000000000000000000 DUP2 MSTORE PUSH1 0x4 ADD PUSH2 0x23D SWAP1 PUSH2 0x523 JUMP JUMPDEST PUSH1 0x40 MLOAD DUP1 SWAP2 SUB SWAP1 REVERT JUMPDEST DUP1 PUSH1 0x2 SWAP1 DUP1 MLOAD SWAP1 PUSH1 0x20 ADD SWAP1 PUSH2 0x25C SWAP3 SWAP2 SWAP1 PUSH2 0x2BA JUMP JUMPDEST POP PUSH32 0xABF5663AF37C05EC71FA04C04D9F65BC6089F26BB0AEFC5B109ADD222B2A66CA PUSH1 0x0 DUP1 SLOAD SWAP1 PUSH2 0x100 EXP SWAP1 DIV PUSH20 0xFFFFFFFFFFFFFFFFFFFFFFFFFFFFFFFFFFFFFFFF AND DUP3 PUSH1 0x40 MLOAD PUSH2 0x2AE SWAP3 SWAP2 SWAP1 PUSH2 0x4D1 JUMP JUMPDEST PUSH1 0x40 MLOAD DUP1 SWAP2 SUB SWAP1 LOG1 POP POP JUMP JUMPDEST DUP3 DUP1 SLOAD PUSH2 0x2C6 SWAP1 PUSH2 0x634 JUMP JUMPDEST SWAP1 PUSH1 0x0 MSTORE PUSH1 0x20 PUSH1 0x0 KECCAK256 SWAP1 PUSH1 0x1F ADD PUSH1 0x20 SWAP1 DIV DUP2 ADD SWAP3 DUP3 PUSH2 0x2E8 JUMPI PUSH1 0x0 DUP6 SSTORE PUSH2 0x32F JUMP JUMPDEST DUP3 PUSH1 0x1F LT PUSH2 0x301 JUMPI DUP1 MLOAD PUSH1 0xFF NOT AND DUP4 DUP1 ADD OR DUP6 SSTORE PUSH2 0x32F JUMP JUMPDEST DUP3 DUP1 ADD PUSH1 0x1 ADD DUP6 SSTORE DUP3 ISZERO PUSH2 0x32F JUMPI SWAP2 DUP3 ADD JUMPDEST DUP3 DUP2 GT ISZERO PUSH2 0x32E JUMPI DUP3 MLOAD DUP3 SSTORE SWAP2 PUSH1 0x20 ADD SWAP2 SWAP1 PUSH1 0x1 ADD SWAP1 PUSH2 0x313 JUMP JUMPDEST JUMPDEST POP SWAP1 POP PUSH2 0x33C SWAP2 SWAP1 PUSH2 0x340 JUMP JUMPDEST POP SWAP1 JUMP JUMPDEST JUMPDEST DUP1 DUP3 GT ISZERO PUSH2 0x359 JUMPI PUSH1 0x0 DUP2 PUSH1 0x0 SWAP1 SSTORE POP PUSH1 0x1 ADD PUSH2 0x341 JUMP JUMPDEST POP SWAP1 JUMP JUMPDEST PUSH1 0x0 PUSH2 0x370 PUSH2 0x36B DUP5 PUSH2 0x574 JUMP JUMPDEST PUSH2 0x543 JUMP JUMPDEST SWAP1 POP DUP3 DUP2 MSTORE PUSH1 0x20 DUP2 ADD DUP5 DUP5 DUP5 ADD GT ISZERO PUSH2 0x388 JUMPI PUSH1 0x0 DUP1 REVERT JUMPDEST PUSH2 0x393 DUP5 DUP3 DUP6 PUSH2 0x5F2 JUMP JUMPDEST POP SWAP4 SWAP3 POP POP POP JUMP JUMPDEST PUSH1 0x0 DUP2 CALLDATALOAD SWAP1 POP PUSH2 0x3AA DUP2 PUSH2 0x6D5 JUMP JUMPDEST SWAP3 SWAP2 POP POP JUMP JUMPDEST PUSH1 0x0 DUP3 PUSH1 0x1F DUP4 ADD SLT PUSH2 0x3C1 JUMPI PUSH1 0x0 DUP1 REVERT JUMPDEST DUP2 CALLDATALOAD PUSH2 0x3D1 DUP5 DUP3 PUSH1 0x20 DUP7 ADD PUSH2 0x35D JUMP JUMPDEST SWAP2 POP POP SWAP3 SWAP2 POP POP JUMP JUMPDEST PUSH1 0x0 DUP1 PUSH1 0x40 DUP4 DUP6 SUB SLT ISZERO PUSH2 0x3ED JUMPI PUSH1 0x0 DUP1 REVERT JUMPDEST PUSH1 0x0 PUSH2 0x3FB DUP6 DUP3 DUP7 ADD PUSH2 0x39B JUMP JUMPDEST SWAP3 POP POP PUSH1 0x20 DUP4 ADD CALLDATALOAD PUSH8 0xFFFFFFFFFFFFFFFF DUP2 GT ISZERO PUSH2 0x418 JUMPI PUSH1 0x0 DUP1 REVERT JUMPDEST PUSH2 0x424 DUP6 DUP3 DUP7 ADD PUSH2 0x3B0 JUMP JUMPDEST SWAP2 POP POP SWAP3 POP SWAP3 SWAP1 POP JUMP JUMPDEST PUSH2 0x437 DUP2 PUSH2 0x5C0 JUMP JUMPDEST DUP3 MSTORE POP POP JUMP JUMPDEST PUSH1 0x0 PUSH2 0x448 DUP3 PUSH2 0x5A4 JUMP JUMPDEST PUSH2 0x452 DUP2 DUP6 PUSH2 0x5AF JUMP JUMPDEST SWAP4 POP PUSH2 0x462 DUP2 DUP6 PUSH1 0x20 DUP7 ADD PUSH2 0x601 JUMP JUMPDEST PUSH2 0x46B DUP2 PUSH2 0x6C4 JUMP JUMPDEST DUP5 ADD SWAP2 POP POP SWAP3 SWAP2 POP POP JUMP JUMPDEST PUSH1 0x0 PUSH2 0x483 PUSH1 0x1B DUP4 PUSH2 0x5AF JUMP JUMPDEST SWAP2 POP PUSH32 0x43616E206F6E6C792063616C6C6564206279206465706C6F7965720000000000 PUSH1 0x0 DUP4 ADD MSTORE PUSH1 0x20 DUP3 ADD SWAP1 POP SWAP2 SWAP1 POP JUMP JUMPDEST PUSH1 0x0 PUSH1 0x20 DUP3 ADD SWAP1 POP PUSH2 0x4CB PUSH1 0x0 DUP4 ADD DUP5 PUSH2 0x42E JUMP JUMPDEST SWAP3 SWAP2 POP POP JUMP JUMPDEST PUSH1 0x0 PUSH1 0x40 DUP3 ADD SWAP1 POP PUSH2 0x4E6 PUSH1 0x0 DUP4 ADD DUP6 PUSH2 0x42E JUMP JUMPDEST DUP2 DUP2 SUB PUSH1 0x20 DUP4 ADD MSTORE PUSH2 0x4F8 DUP2 DUP5 PUSH2 0x43D JUMP JUMPDEST SWAP1 POP SWAP4 SWAP3 POP POP POP JUMP JUMPDEST PUSH1 0x0 PUSH1 0x20 DUP3 ADD SWAP1 POP DUP2 DUP2 SUB PUSH1 0x0 DUP4 ADD MSTORE PUSH2 0x51B DUP2 DUP5 PUSH2 0x43D JUMP JUMPDEST SWAP1 POP SWAP3 SWAP2 POP POP JUMP JUMPDEST PUSH1 0x0 PUSH1 0x20 DUP3 ADD SWAP1 POP DUP2 DUP2 SUB PUSH1 0x0 DUP4 ADD MSTORE PUSH2 0x53C DUP2 PUSH2 0x476 JUMP JUMPDEST SWAP1 POP SWAP2 SWAP1 POP JUMP JUMPDEST PUSH1 0x0 PUSH1 0x40 MLOAD SWAP1 POP DUP2 DUP2 ADD DUP2 DUP2 LT PUSH8 0xFFFFFFFFFFFFFFFF DUP3 GT OR ISZERO PUSH2 0x56A JUMPI PUSH2 0x569 PUSH2 0x695 JUMP JUMPDEST JUMPDEST DUP1 PUSH1 0x40 MSTORE POP SWAP2 SWAP1 POP JUMP JUMPDEST PUSH1 0x0 PUSH8 0xFFFFFFFFFFFFFFFF DUP3 GT ISZERO PUSH2 0x58F JUMPI PUSH2 0x58E PUSH2 0x695 JUMP JUMPDEST JUMPDEST PUSH1 0x1F NOT PUSH1 0x1F DUP4 ADD AND SWAP1 POP PUSH1 0x20 DUP2 ADD SWAP1 POP SWAP2 SWAP1 POP JUMP JUMPDEST PUSH1 0x0 DUP2 MLOAD SWAP1 POP SWAP2 SWAP1 POP JUMP JUMPDEST PUSH1 0x0 DUP3 DUP3 MSTORE PUSH1 0x20 DUP3 ADD SWAP1 POP SWAP3 SWAP2 POP POP JUMP JUMPDEST PUSH1 0x0 PUSH2 0x5CB DUP3 PUSH2 0x5D2 JUMP JUMPDEST SWAP1 POP SWAP2 SWAP1 POP JUMP JUMPDEST PUSH1 0x0 PUSH20 0xFFFFFFFFFFFFFFFFFFFFFFFFFFFFFFFFFFFFFFFF DUP3 AND SWAP1 POP SWAP2 SWAP1 POP JUMP JUMPDEST DUP3 DUP2 DUP4 CALLDATACOPY PUSH1 0x0 DUP4 DUP4 ADD MSTORE POP POP POP JUMP JUMPDEST PUSH1 0x0 JUMPDEST DUP4 DUP2 LT ISZERO PUSH2 0x61F JUMPI DUP1 DUP3 ADD MLOAD DUP2 DUP5 ADD MSTORE PUSH1 0x20 DUP2 ADD SWAP1 POP PUSH2 0x604 JUMP JUMPDEST DUP4 DUP2 GT ISZERO PUSH2 0x62E JUMPI PUSH1 0x0 DUP5 DUP5 ADD MSTORE JUMPDEST POP POP POP POP JUMP JUMPDEST PUSH1 0x0 PUSH1 0x2 DUP3 DIV SWAP1 POP PUSH1 0x1 DUP3 AND DUP1 PUSH2 0x64C JUMPI PUSH1 0x7F DUP3 AND SWAP2 POP JUMPDEST PUSH1 0x20 DUP3 LT DUP2 EQ ISZERO PUSH2 0x660 JUMPI PUSH2 0x65F PUSH2 0x666 JUMP JUMPDEST JUMPDEST POP SWAP2 SWAP1 POP JUMP JUMPDEST PUSH32 0x4E487B7100000000000000000000000000000000000000000000000000000000 PUSH1 0x0 MSTORE PUSH1 0x22 PUSH1 0x4 MSTORE PUSH1 0x24 PUSH1 0x0 REVERT JUMPDEST PUSH32 0x4E487B7100000000000000000000000000000000000000000000000000000000 PUSH1 0x0 MSTORE PUSH1 0x41 PUSH1 0x4 MSTORE PUSH1 0x24 PUSH1 0x0 REVERT JUMPDEST PUSH1 0x0 PUSH1 0x1F NOT PUSH1 0x1F DUP4 ADD AND SWAP1 POP SWAP2 SWAP1 POP JUMP JUMPDEST PUSH2 0x6DE DUP2 PUSH2 0x5C0 JUMP JUMPDEST DUP2 EQ PUSH2 0x6E9 JUMPI PUSH1 0x0 DUP1 REVERT JUMPDEST POP JUMP INVALID LOG2 PUSH5 0x6970667358 0x22 SLT KECCAK256 LOG3 JUMP 0xDA 0xAC NOT JUMPI SWAP5 MSIZE 0xE9 0x2E 0xE1 SLOAD DUP13 0x4F OR SLOAD 0xE6 LOG0 0xFB 0xDE 0x5F 0xC3 GAS PUSH6 0x66F71FE981BB SWAP8 SDIV PUSH5 0x736F6C6343 STOP ADDMOD STOP STOP CALLER "
				},
				"gasEstimates": {
					"creation": {
						"codeDepositCost": "365200",
						"executionCost": "21271",
						"totalCost": "386471"
					},
					"external": {
						"color()": "infinite",
						"getDeployer()": "1200",
						"setColor(address,string)": "infinite"
					}
				},
				"methodIdentifiers": {
					"color()": "cf08fed5",
					"getDeployer()": "72630531",
					"setColor(address,string)": "db0c4bb6"
				}
			},
			"storageLayout": {
				"storage": [
					{
						"astId": 4,
						"contract": "contracts/b.sol:Bereitstellen",
						"label": "deployer",
						"offset": 0,
						"slot": "0",
						"type": "t_address"
					},
					{
						"astId": 6,
						"contract": "contracts/b.sol:Bereitstellen",
						"label": "by",
						"offset": 0,
						"slot": "1",
						"type": "t_address"
					},
					{
						"astId": 8,
						"contract": "contracts/b.sol:Bereitstellen",
						"label": "color",
						"offset": 0,
						"slot": "2",
						"type": "t_string_storage"
					}
				],
				"types": {
					"t_address": {
						"encoding": "inplace",
						"label": "address",
						"numberOfBytes": "20"
					},
					"t_string_storage": {
						"encoding": "bytes",
						"label": "string",
						"numberOfBytes": "32"
					}
				}
			},
			"userdoc": {
				"kind": "user",
				"methods": {},
				"version": 1
			}
		}
	}
}